:020000040800F2
:1000000000400220DD07000881070008890700087A
:1000100000000000000000000000000000000000E0
:100020000000000000000000000000009107000830
:1000300000000000000000009B070008A507000862
:100040002D0800082D0800082D0800082D080008BC
:100050002D0800082D0800082D0800082D080008AC
:100060002D0800082D0800082D0800082D0800089C
:100070002D080008B50700082D0800082D08000805
:100080002D0800082D0800082D0800082D0800087C
:100090002D0800082D0800082D0800082D0800086C
:1000A0002D0800082D0800082D0800082D0800085C
:0C00B0002D0800082D0800082D0800088D
:1000BC0010B5064C2378002B07D1054B002B02D032
:1000CC00044800E000BF0123237010BD0C00002089
:1000DC0000000000FC2D0008044B10B5002B03D0D1
:1000EC000349044800E000BF10BDC04600000000FA
:1000FC0010000020FC2D0008002243088B4274D312
:10010C0003098B425FD3030A8B4244D3030B8B420C
:10011C0028D3030C8B420DD3FF22090212BA030C15
:10012C008B4202D31212090265D0030B8B4219D3F6
:10013C0000E0090AC30B8B4201D3CB03C01A524116
:10014C00830B8B4201D38B03C01A5241430B8B425E
:10015C0001D34B03C01A5241030B8B4201D30B0347
:10016C00C01A5241C30A8B4201D3CB02C01A52416E
:10017C00830A8B4201D38B02C01A5241430A8B4231
:10018C0001D34B02C01A5241030A8B4201D30B021A
:10019C00C01A5241CDD2C3098B4201D3CB01C01A34
:1001AC00524183098B4201D38B01C01A524143093E
:1001BC008B4201D34B01C01A524103098B4201D32C
:1001CC000B01C01A5241C3088B4201D3CB00C01A99
:1001DC00524183088B4201D38B00C01A5241430811
:1001EC008B4201D34B00C01A5241411A00D2014636
:1001FC00524110467047FFE701B5002000F006F8A9
:10020C0002BDC0460029F7D076E770477047C0465C
:10021C0080B500AF00F006FB00F026F800F010F9F6
:10022C0000F06AF800F0B0F80D4B180000F0FEFD7D
:10023C000B4B00220121180000F063FE094B180043
:10024C0002F080F9642000F073FB00F03DF9FA2312
:10025C00DB00180000F06CFB00F060F9FCE7C04616
:10026C00280000208C00002090B595B000AF14241D
:10027C003B1918003C231A00002102F08DFD3B1D98
:10028C00180010231A00002102F086FD80239B0029
:10029C00180001F099F93B1902221A603B198022CF
:1002AC005200DA603B1900221A613B1940225A6154
:1002BC003B1900221A623B19180001F0C5F9031E04
:1002CC0001D000F089F93B1D07221A603B1D00226A
:1002DC005A603B1D00229A603B1D0022DA603B1DD8
:1002EC000021180001F010FD031E01D000F074F97C
:1002FC00C046BD4615B090BD80B500AF204B214A1D
:10030C001A601F4B00225A601D4B00229A601C4B36
:10031C000022DA601A4B00221A74194B00225A740C
:10032C00174B00229A74164B04225A61144B01226B
:10033C009A61134B0522DA61114B02221A62104B9F
:10034C0001225A620E4B01229A620D4B0122DA6293
:10035C000B4B01221A630A4B00225A63084B0022F2
:10036C009A63074B0022DA63054B180000F0F8FB88
:10037C00031E01D000F030F9C046BD4680BDC0461A
:10038C00280000200068004080B588B000AF102322
:10039C00FB18180010231A00002102F0FDFC3B1D75
:1003AC0018000C231A00002102F0F6FC214B224A03
:1003BC001A60204B00225A601E4B00229A601D4B83
:1003CC001E4ADA601B4B00221A611A4B00225A613A
:1003DC00184B00229A61174B180002F05BF8031EB1
:1003EC0001D000F0F9F810217B18802252011A601C
:1003FC007A18104B1100180002F00EFA031E01D0EF
:10040C0000F0EAF83B1D00221A603B1D00225A60E6
:10041C003B1D00229A603A1D064B1100180002F099
:10042C002DFC031E01D000F0D7F8C046BD4608B025
:10043C0080BDC0468C000020002C0140FFFF000056
:10044C0090B589B000AF0C243B19180014231A0086
:10045C00002102F0A1FC1A4B5A6B194B02210A43E2
:10046C005A63174B5B6B02221340BB60BB68144B87
:10047C005A6B134B01210A435A63114B5B6B0122DC
:10048C0013407B607B680F4B00228021180001F029
:10049C0063F821007B1880221A607B1801225A60B5
:1004AC007B1800229A607B180022DA607B18054AC0
:1004BC001900100000F0E4FEC046BD4609B090BD26
:1004CC00001002400004005080B500AF104B002219
:1004DC001A600F4B00225A600D4B00229A600C4B95
:1004EC000222DA600A4B00229A610A4B01221A702E
:1004FC00084B15225A70074A0549074B180000F0A3
:10050C00BBFCFA2000F014FAC046BD4680BDC046C4
:10051C0038010020E80000202800002080B500AF42
:10052C00154B164A1A60144B00225A60124B0022CB
:10053C009A60114B0122DA600F4B00229A61104B2A
:10054C0001221A70642000F0F3F90D4A0A490D4B90
:10055C00180000F091FC031E06D10B4B01228021E8
:10056C00180000F0F9FF04E0074B8021180001F09F
:10057C0010F8C046BD4680BDF000002015020000FA
:10058C00D8000020280000200004005080B500AFE7
:10059C000D4B0E4A1A600C4B00225A600A4B00227B
:1005AC009A60094B0122DA60074B00229A61084BD2
:1005BC0005221A70064A0449064B180000F05CFC30
:1005CC00C046BD4680BDC046140100200107000096
:1005DC00E00000202800002080B500AF72B6C046B5
:1005EC00C046FDE780B582B000AF114B1A6C104BC2
:1005FC0001210A431A640E4B1B6C012213407B60D1
:10060C007B680B4BDA6B0A4B802149050A43DA6392
:10061C00074BDA6B80235B0513403B603B68802300
:10062C009B00180000F0A8F9C046BD4602B080BD82
:10063C000010024090B59DB000AF78605C23FB18B1
:10064C00180014231A00002102F0A6FB10243B19F9
:10065C0018004C231A00002102F09EFB7B681B68DB
:10066C00224A93423ED13B19802292041A603B19D4
:10067C0000229A643B19180001F0D0FC031E01D033
:10068C00FFF7AAFF1A4BDA6B194B802149010A4379
:10069C00DA63174BDA6B80235B011340FB60FB685A
:1006AC00134B5A6B124B02210A435A63104B5B6B70
:1006BC0002221340BB60BB685C217B1803221A60CA
:1006CC007B1802225A607B1800229A607B18002249
:1006DC00DA607B1803221A617B18064A1900100095
:1006EC0000F0CEFDC046BD461DB090BD0068004078
:1006FC00001002400004005090B597B000AF786035
:10070C000C243B1918004C231A00002102F044FB66
:10071C007B681B68154A934224D13B1980229203B3
:10072C001A603B1900229A633B19180001F076FC01
:10073C00031E01D0FFF750FF0D4B1A6C0C4B8021A0
:10074C0009010A431A640A4B1A6C80231B011340DB
:10075C00BB60BB68002200210D2000F0CFF90D20FA
:10076C0000F0E1F9C046BD4617B090BD002C014029
:10077C000010024080B500AFC046FDE780B500AF69
:10078C00C046FDE780B500AFC046BD4680BD80B514
:10079C0000AFC046BD4680BD80B500AF00F0ACF8E0
:1007AC00C046BD4680BD000080B500AF044B1800AC
:1007BC0001F02AFFFFF7EAFEC046BD4680BDC046E9
:1007CC008C00002080B500AFC046BD4680BD000047
:1007DC000D488546FFF7F6FF0C480D490D4A0023DE
:1007EC0002E0D458C4500433C4188C42F9D30A4ADA
:1007FC000A4C002301E013600432A242FBD302F046
:10080C00D3FAFFF705FDFEE70040022000000020B0
:10081C000C0000206C2E00080C0000206001002051
:10082C00FEE7000080B582B000AFFB1D00221A70FD
:10083C000B4B1A680A4B802149000A431A600320AB
:10084C0000F010F8031E03D0FB1D01221A7001E00A
:10085C00FFF7C8FEFB1D1B781800BD4602B080BD1B
:10086C000020024090B585B000AF78600F23FB18D4
:10087C0000221A701D4B1B78002B2BD01C4B1C68B4
:10088C001A4B1B781900FA239800FFF735FC03006C
:10089C0019002000FFF730FC0300180000F053F99A
:1008AC00031E12D17B68032B0AD8796801235B42A3
:1008BC000022180000F022F90E4B7A681A600DE045
:1008CC000F23FB1801221A7008E00F23FB180122DA
:1008DC001A7003E00F23FB1801221A700F23FB1868
:1008EC001B781800BD4605B090BDC046080000201E
:1008FC00000000200400002080B500AF054B1B78E1
:10090C001A00054B1B68D218034B1A60C046BD4633
:10091C0080BDC046080000205C01002080B500AFFF
:10092C00024B1B681800BD4680BDC0465C01002010
:10093C0080B584B000AF7860FFF7F0FF0300BB60B8
:10094C007B68FB60FB68013305D00A4B1B781A00EF
:10095C00FB689B18FB60C046FFF7E0FF0200BB681A
:10096C00D31AFA689A42F7D8C046C046BD4604B0BE
:10097C0080BDC0460800002080B582B000AF786012
:10098C00064B1B68064A13401900044B7A680A434D
:10099C001A60C046BD4602B080BDC0460000014092
:1009AC00FFF9FFFF80B582B000AF0200FB1D1A708B
:1009BC00FB1D1B787F2B09D8FB1D1B781A001F23EE
:1009CC001A40044B012191400A001A60C046BD46F2
:1009DC0002B080BD00E100E090B583B000AF020032
:1009EC003960FB1D1A70FB1D1B787F2B28D82F4AF2
:1009FC00FB1D1B785BB29B08C0339B009B58FA1DF8
:100A0C001278110003220A40D200FF2191400A0003
:100A1C00D2431A4011003B689B01FF221A40FB1D78
:100A2C001B78180003230340DB009A401F48FB1D72
:100A3C001B785BB29B080A43C0339B001A5031E011
:100A4C001B4AFB1D1B7819000F230B40083B9B080E
:100A5C0006339B00D31804331B68FA1D127811005F
:100A6C0003220A40D200FF2191400A00D2431A40CF
:100A7C0011003B689B01FF221A40FB1D1B781800DC
:100A8C0003230340DB009A400948FB1D1B781C0024
:100A9C000F232340083B9B080A4306339B00C318D3
:100AAC0004331A60C046BD4603B090BD00E100E0BF
:100ABC0000ED00E080B582B000AF78607B685A1E14
:100ACC0080235B049A4201D3012310E00A4B7A681D
:100ADC00013A5A6001235B4203211800FFF77CFFA7
:100AEC00054B00229A60044B07221A600023180061
:100AFC00BD4602B080BDC04610E000E080B584B0B9
:100B0C0000AFB9607A600F217B18021C1A70BA68AA
:100B1C007B181B785BB211001800FFF75DFFC04615
:100B2C00BD4604B080BD80B582B000AF0200FB1D95
:100B3C001A70FB1D1B785BB21800FFF733FFC04621
:100B4C00BD4602B080BD80B582B000AF78607B68D6
:100B5C001800FFF7AFFF03001800BD4602B080BDC0
:100B6C0080B584B000AF78607B68002B01D1012385
:100B7C004EE17B685C229B5CDBB2002B07D17B686F
:100B8C005D22002199547B681800FFF753FD7B68A8
:100B9C001B689A697B681B6810218A439A61FFF76E
:100BAC00BDFE0300FB6012E0FFF7B8FE0200FB681D
:100BBC00D31A0A2B0BD97B681B6E01221A437B6854
:100BCC001A667B685C2203219954012320E17B681F
:100BDC001B689B6908221340082BE5D07B681B68B7
:100BEC009A697B681B6801210A439A61FFF796FE9C
:100BFC000300FB6012E0FFF791FE0200FB68D31AC2
:100C0C000A2B0BD97B681B6E01221A437B681A6670
:100C1C007B685C22032199540123F9E07B681B68F3
:100C2C009B6901221340E6D07B681B689A697B683C
:100C3C001B6802210A439A617B681B68764A9342BF
:100C4C0003D1764A7B685B6813607B681B7C012B45
:100C5C0008D17B681B689A697B681B6840218A43B2
:100C6C009A6107E07B681B689A697B681B68402166
:100C7C000A439A617B685B7C012B09D17B681B68FA
:100C8C009A697B681B688021C9010A439A6107E055
:100C9C007B681B689A697B681B6861490A409A618A
:100CAC007B689B7C012B08D17B681B689A697B68ED
:100CBC001B685C490A409A6108E07B681B689A696A
:100CCC007B681B68802149010A439A617B681B6819
:100CDC009B69554A134019007B689A687B681B68AE
:100CEC000A439A617B681B689A697B681B68A4211C
:100CFC008A439A617B681B681A697B681B681021A0
:100D0C008A431A617B68DB68012B08D17B681B68FE
:100D1C009A697B681B6804210A439A612CE07B6802
:100D2C00DB68002B28D07B68DB68022B1CD07B682F
:100D3C001B689A697B681B6880210A439A617B68EF
:100D4C001B681A697B681B6810210A431A617B684F
:100D5C00DB68032B10D17B681B689A697B681B6866
:100D6C0020210A439A6107E07B681B689A697B68BB
:100D7C001B6820210A439A617B689B69013B5A06D8
:100D8C007B68DB69013B1B021A437B681B6A013BD6
:100D9C001A4311007B685B69013B1A047B681B6872
:100DAC000A43DA617B689A68C0239B009A4215D18A
:100DBC007B689B6A5A1E7B68DB6A013B1B021A43E9
:100DCC007B681B6B013B1B011A4311007B685B6A40
:100DDC00013B1A047B681B680A43DA607B681B685A
:100DEC00C02299587B68DA6B7B681B680A43C02168
:100DFC005A507B68180000F05BF97B6800229A65FA
:100E0C007B6800221A667B685C22012199540023BE
:100E1C001800BD4604B080BD006400400065004071
:100E2C00FFBFFFFFFFEFFFFFFFFCFFFF80B582B0AE
:100E3C0000AF78607B685C229B5CDBB2012B10D12D
:100E4C007B685C22022199547B681B689A697B68D9
:100E5C001B6801218A439A617B6800221A66002371
:100E6C0006E07B681B6E04221A437B681A6601231A
:100E7C001800BD4602B080BD80B586B000AFF860EA
:100E8C00B9607A60FB685C229B5CDBB2022B2DD1D3
:100E9C00FB681B68C4229A5880239B03134008D01C
:100EAC00FB681B6E802292001A43FB681A660123B2
:100EBC0023E0FB681B68C4229B581B0C03221340C5
:100ECC007B617B697A68B968F86800F05DF9FB684A
:100EDC001B6801217A6991400A00CC215A500122E9
:100EEC007B699A40FB689A65002306E0FB681B6EE1
:100EFC0008221A43FB681A6601231800BD4606B087
:100F0C0080BD80B586B000AFF860B9607A601720FC
:100F1C003B18FA685C21525C1A700200BB181B78F3
:100F2C00012B04D0BB181B78022B00D0B4E0FB685B
:100F3C001B689B6D3B61BB680722134003D03B6968
:100F4C000122134034D0BB683822134003D03B69D4
:100F5C00022213402CD0BA68E0235B00134003D06C
:100F6C003B690422134023D0BA68F0235B01134081
:100F7C0003D03B69082213401AD0BA68E0231B0245
:100F8C00134003D03B691022134011D0BA68C02320
:100F9C009B02134003D03B692022134008D0BA684F
:100FAC00FC231B0413400BD03B694022134007D198
:100FBC00FB681B68DA6DFB681B6801210A43DA6564
:100FCC00BB680722134003D03B690122134034D184
:100FDC00BB683822134003D03B69022213402CD14A
:100FEC00BA68E0235B00134003D03B690422134032
:100FFC0023D1BA68F0235B01134003D03B6908226C
:10100C0013401AD1BA68E0231B02134003D03B698A
:10101C001022134011D1BA68C0239B02134003D095
:10102C003B692022134008D1BA68FC231B041340EF
:10103C000BD03B694022134007D0FB681B68DA6D6C
:10104C00FB681B6802210A43DA65BB6880221340E7
:10105C0009D0FB681B68DC229958FB681B687A680E
:10106C000A43DC215A50BA6880235B00134009D034
:10107C00FB681B68E0229958FB681B687A680A4376
:10108C00E0215A50FB681B68596DFB681B68BA68F5
:10109C000A435A65002306E0FB681B6E02221A43C2
:1010AC00FB681A6601231800BD4606B080BD00001F
:1010BC0080B584B000AF78602F4BBB607B681B6839
:1010CC002E4A934205D1BB68D422920094466344C5
:1010DC00BB607B68BA681A647B681B6880229B586B
:1010EC00274A134019007B685B6B1A047B681B68EA
:1010FC000A4380215A50BB6870331A007B685A64CB
:10110C007B681B6880229B581E4A134019007B6821
:10111C009B6B1A067B681B680A4380215A50BB687C
:10112C00B0331A007B689A64BB688933FF331A00AA
:10113C007B68DA64BB68982292009A187B681A65FF
:10114C00BB689E2292009A187B685A65BB68FB604C
:10115C0005E0FB6800221A60FB680433FB60BB6887
:10116C00D422920094466344FA689A42F1D3C04662
:10117C00C046BD4604B080BD00B4004000680040CD
:10118C00FFFFE0FFFFFFFFF080B588B000AFF86015
:10119C00B9607A603B60BB685B68002B0AD1BB68A6
:1011AC001A69BB689B681A43BB681B689B04134392
:1011BC00FB610BE0BB681A69BB689B681A43BB6890
:1011CC001B6813438022D2051343FB61BB681B6A67
:1011DC001A06BB68DB691A43BB689B691A43BB6878
:1011EC005B691A43BB68DB681B0413433B61FB68F8
:1011FC00596D3A681300DB009B18DB00CB18BB6100
:10120C00BB69FA691A60BB690433BB61BB693A6993
:10121C001A60BB690433BB6100237B6120E07B69EE
:10122C0003337A68D3181B781A067B690233796802
:10123C00CB181B781B041A437B6901337968CB18D4
:10124C001B781B02134379687A698A1812781A433F
:10125C00BB691A60BB690433BB617B6904337B6176
:10126C00BB68DB68054AD35C1A007B699342D6D312
:10127C00C046C046BD4608B080BDC046542E0008CE
:10128C0080B586B000AF7860396000237B614DE19A
:10129C003B681B6801217A6991400A001340FB608E
:1012AC00FB68002B00D13EE13B685B6803221340D6
:1012BC00012B05D03B685B6803221340022B30D115
:1012CC007B689B683B617B695B0003229A4013003F
:1012DC00DA433B6913403B613B68DA687B695B002E
:1012EC009A4013003A6913433B617B683A699A60F0
:1012FC007B685B683B6101227B699A401300DA438F
:10130C003B6913403B613B685B681B0901221A4037
:10131C007B699A4013003A6913433B617B683A69D5
:10132C005A603B685B6803221340032B17D07B6821
:10133C00DB683B617B695B0003229A401300DA4354
:10134C003B6913403B613B689A687B695B009A4040
:10135C0013003A6913433B617B683A69DA603B6876
:10136C005B6803221340022B23D17B69DA087B686C
:10137C0008329200D3583B617B69072213409B00D3
:10138C000F229A401300DA433B6913403B613B68E0
:10139C001A697B6907210B409B009A4013003A693C
:1013AC0013433B617B69DA087B6808329200396928
:1013BC00D1507B681B683B617B695B0003229A40C0
:1013CC001300DA433B6913403B613B685B680322C3
:1013DC001A407B695B009A4013003A6913433B61E6
:1013EC007B683A691A603B685A68C0239B021340B9
:1013FC0000D198E0534A7B699B0818339B009B589B
:10140C003B617B6903221340DB000F229A401300DF
:10141C00DA433B6913403B617A68A023DB059A42AF
:10142C0019D07B68484A934213D07B68474A934251
:10143C000DD07B68464A934207D07B68454A93425D
:10144C0001D1042308E0052306E0032304E0022372
:10145C0002E0012300E000237A6903210A40D20054
:10146C0093403A6913433B6136497B699B081833B7
:10147C009B003A695A50334B1B683B61FB68DA435B
:10148C003B6913403B613B685A6880235B03134004
:10149C0003D03A69FB6813433B612A4B3A691A60E3
:1014AC00284B5B683B61FB68DA433B6913403B614B
:1014BC003B685A6880239B03134003D03A69FB684E
:1014CC0013433B611F4B3A695A601E4A8423D3581D
:1014DC003B61FB68DA433B6913403B613B685A68EC
:1014EC0080239B02134003D03A69FB6813433B6192
:1014FC00144984223B698B50124A8023D3583B6198
:10150C00FB68DA433B6913403B613B685A688023B4
:10151C005B02134003D03A69FB6813433B610949F2
:10152C0080223B698B507B6901337B613B681A6875
:10153C007B69DA40131E00D0AAE6C046C046BD4601
:10154C0006B080BD00180240000400500008005096
:10155C00000C00500010005080B582B000AF7860D5
:10156C0008001100BB1C021C1A807B1C0A1C1A7080
:10157C007B1C1B78002B04D0BB1C1A887B689A61DF
:10158C0003E0BB1C1A887B689A62C046BD4602B059
:10159C0080BD80B584B000AF78600A00BB1C1A8097
:1015AC007B685B69FB60BB1C1B88FA6813401A04E0
:1015BC00FB68DB43B91C09880B401A437B689A61B2
:1015CC00C046BD4604B080BD80B584B000AF786025
:1015DC00194B1B68194A13401900174B7A680A43B8
:1015EC001A607A6880239B009A421FD1144B1A68A8
:1015FC0013005B009B185B0012491800FEF77CFD82
:10160C0003000133FB6008E0FB68002B03D0FB6890
:10161C00013BFB6001E0032309E0074B5A6980237F
:10162C00DB001A408023DB009A42EDD00023180027
:10163C00BD4604B080BDC04600700040FFF9FFFFFE
:10164C000000002040420F0080B588B000AF7860E9
:10165C007B68002B02D1012300F050FB7B681B68D8
:10166C000122134000D17CE0C34B9B68382213400D
:10167C00BB61C14BDB68032213407B61BB69102B40
:10168C0002D17B69032B02D0BB69082B0BD1BA4B5F
:10169C001A6880239B02134062D07B685B68002B26
:1016AC005ED101232AE37B685A6880235B029A424D
:1016BC0007D1B14B1A68B04B802149020A431A601A
:1016CC0020E07B685A68A023DB029A420ED1AA4B19
:1016DC001A68A94B8021C9020A431A60A64B1A68E2
:1016EC00A54B802149020A431A600BE0A24B1A68F1
:1016FC00A14BA2490A401A609F4B1A689E4BA04905
:10170C000A401A607B685B68002B14D0FFF706F95F
:10171C0003003B6108E0FFF701F902003B69D31AB3
:10172C00642B01D90323E9E2934B1A6880239B02B3
:10173C001340F0D015E0FFF7F1F803003B6108E02F
:10174C00FFF7ECF802003B69D31A642B01D9032391
:10175C00D4E2894B1A6880239B021340F0D100E03D
:10176C00C0467B681B680222134000D199E0824B73
:10177C009B6838221340BB617F4BDB68032213400C
:10178C007B61BB69102B02D17B69022B02D0BB6938
:10179C00002B35D1784B1A688023DB00134005D021
:1017AC007B68DB68002B01D10123A7E2724B5B68DD
:1017BC00744A134019007B685B691A026E4B0A432A
:1017CC005A60BB69002B12D16B4B1B686E4A1340DD
:1017DC0019007B681A69684B0A431A60664B1B68D0
:1017EC00DB0A07221340694ADA40694B1A60694BDD
:1017FC001B681800FFF736F8031E51D001237DE259
:10180C007B68DB68002B30D05B4B1B685E4A134057
:10181C0019007B681A69584B0A431A60564B1A68B0
:10182C00554B802149000A431A60FFF777F80300F3
:10183C003B6108E0FFF772F802003B69D31A022BF8
:10184C0001D903235AE24C4B1A688023DB00134066
:10185C00F0D0494B5B684B4A134019007B685B69BD
:10186C001A02454B0A435A601BE0434B1A68424B21
:10187C0049490A401A60FFF751F803003B6108E040
:10188C00FFF74CF802003B69D31A022B01D9032352
:10189C0034E2394B1A688023DB001340F0D100E0AE
:1018AC00C0467B681B680822134047D0324B9B68AC
:1018BC0038221340182B0AD12F4B1B6E02221340D7
:1018CC003CD07B689B69002B38D1012316E27B68E6
:1018DC009B69002B19D0284B1A6E274B01210A4308
:1018EC001A66FFF71BF803003B6108E0FFF716F8D8
:1018FC0002003B69D31A022B01D90323FEE11E4BD4
:10190C001B6E02221340F1D018E01B4B1A6E1A4BBF
:10191C0001218A431A66FFF701F803003B6108E0D6
:10192C00FEF7FCFF02003B69D31A022B01D90323FB
:10193C00E4E1114B1B6E02221340F1D17B681B6852
:10194C000422134000D1C7E01F23FB1800221A7099
:10195C00094B9B6838221340202B1FD1064BDB6DA3
:10196C000222134000D1B7E07B689B68002B00D0AB
:10197C00B2E00123C2E1C04600100240FFFFFEFFAF
:10198C00FFFFFBFFFF80FFFFFFC7FFFF0024F400FA
:10199C000000002004000020FFFEFFFFB54BDA6BB7
:1019AC0080235B05134001D1012300E00023002BB1
:1019BC0011D0B04BDA6BAF4B802149050A43DA6387
:1019CC00AC4BDA6B80235B051340FB60FB681F2379
:1019DC00FB1801221A70A84B1A6880235B00134075
:1019EC001AD1A54B1A68A44B802149000A431A60EE
:1019FC00FEF794FF03003B6108E0FEF78FFF020047
:101A0C003B69D31A022B01D9032377E19A4B1A684D
:101A1C0080235B001340F0D07B689B68012B06D1C0
:101A2C00944BDA6D934B01210A43DA651CE07B6819
:101A3C009B68052B0CD18F4BDA6D8E4B04210A431E
:101A4C00DA658C4BDA6D8B4B01210A43DA650BE0BE
:101A5C00884BDA6D874B01218A43DA65854BDA6D49
:101A6C00844B04218A43DA657B689B68002B14D075
:101A7C00FEF754FF03003B6109E0FEF74FFF020045
:101A8C003B69D31A7D4A934201D9032336E1794B42
:101A9C00DB6D02221340F0D013E0FEF73FFF030092
:101AAC003B6109E0FEF73AFF02003B69D31A734A27
:101ABC00934201D9032321E16E4BDB6D02221340CB
:101ACC00F0D11F23FB181B78012B05D1694BDA6B66
:101ADC00684B6B490A40DA637B681B682022134011
:101AEC0039D07B68DB69002B1BD0624B1A68614BC9
:101AFC008021C9030A431A60FEF710FF03003B6103
:101B0C0008E0FEF70BFF02003B69D31A022B01D948
:101B1C000323F3E0574B1A6880231B041340F0D0C7
:101B2C0019E0544B1A68534B56490A401A60FEF799
:101B3C00F5FE03003B6108E0FEF7F0FE02003B6996
:101B4C00D31A022B01D90323D8E04A4B1A688023FD
:101B5C001B041340F0D17B681B6A002B00D1CCE036
:101B6C00444B9B6838221340102B00D17BE07B68E0
:101B7C001B6A022B56D13F4B1A683E4B42490A4016
:101B8C001A60FEF7CBFE03003B6108E0FEF7C6FED1
:101B9C0002003B69D31A022B01D90323AEE0354B6B
:101BAC001A6880239B041340F0D1324BDB68374A10
:101BBC00134019007B685A6A7B689B6A1A437B68DE
:101BCC00DB6A1B021A437B681B6B1A437B685B6BDB
:101BDC001A437B689B6B1A43264B0A43DA60254BEE
:101BEC001A68244B802149040A431A60214BDA6895
:101BFC00204B802149050A43DA60FEF78FFE030073
:101C0C003B6108E0FEF78AFE02003B69D31A022B07
:101C1C0001D9032372E0174B1A6880239B041340ED
:101C2C00F0D06AE0134B1A68124B17490A401A603D
:101C3C00FEF774FE03003B6108E0FEF76FFE020046
:101C4C003B69D31A022B01D9032357E0094B1A68BD
:101C5C0080239B041340F0D1064BDA68054B0C49EA
:101C6C000A40DA6049E07B681B6A012B12D1012320
:101C7C0044E0C04600100240007000408813000091
:101C8C00FFFFFFEFFFFFBFFFFFFFFFFE8C80C111C7
:101C9C00FCFFFEEE1B4BDB687B617B6903221A4069
:101CAC007B685B6A9A4226D17B6970221A407B68FA
:101CBC009B6A9A421FD17A69FE23DB011A407B682A
:101CCC00DB6A1B029A4216D17A69F8239B031A40ED
:101CDC007B681B6B9A420ED17A69E0231B051A4074
:101CEC007B685B6B9A4206D17B695B0F5A077B68FA
:101CFC009B6B9A4201D0012300E000231800BD46E3
:101D0C0008B080BD0010024080B584B000AF786090
:101D1C0039607B68002B01D10123E9E0764B1B680D
:101D2C00072213403A689A421ED9734B1B6807224C
:101D3C0093431900704B3A680A431A60FEF7EEFDA4
:101D4C000300FB6009E0FEF7E9FD0200FB68D31A13
:101D5C006A4A934201D90323CAE0674B1B680722E6
:101D6C0013403A689A42EED17B681B6802221340FA
:101D7C0015D07B681B680422134006D0604B9A6810
:101D8C005F4BE021C9010A439A605D4B9B685D4A39
:101D9C00134019007B689A68594B0A439A607B6818
:101DAC001B680122134057D07B685B68012B07D15D
:101DBC00534B1A6880239B0213402BD1012397E0CD
:101DCC007B685B68022B07D14D4B1A6880239B0400
:101DDC0013401FD101238BE07B685B68002B07D17C
:101DEC00474B1A688023DB00134013D101237FE09B
:101DFC007B685B68032B06D1414B1B6E02221340A0
:101E0C0008D1012374E03E4BDB6D0222134001D15B
:101E1C0001236DE03A4B9B680722934319007B68C2
:101E2C005A68374B0A439A60FEF778FD0300FB6053
:101E3C0009E0FEF773FD0200FB68D31A2F4A9342A8
:101E4C0001D9032354E02E4B9B6838221A407B683F
:101E5C005B68DB009A42ECD1274B1B6807221340CE
:101E6C003A689A421ED2244B1B68072293431900EE
:101E7C00214B3A680A431A60FEF750FD0300FB60E1
:101E8C0009E0FEF74BFD0200FB68D31A1B4A934294
:101E9C0001D903232CE0184B1B68072213403A6826
:101EAC009A42EED17B681B680422134009D0144B74
:101EBC009B68154A134019007B68DA68104B0A437B
:101ECC009A6000F029F801000D4B9B681B0A0F2249
:101EDC001A400E4B9200D3581F2213400A00DA40CE
:101EEC000B4B1A600B4B1B681800FEF7BBFC030076
:101EFC001800BD4604B080BD0020024088130000CD
:101F0C0000100240FFF0FFFFFF8FFFFF142E0008B0
:101F1C00000000200400002080B586B000AF3C4BD0
:101F2C009B68382213400FD1394B1B68DB0A072200
:101F3C00134001229A4013003B6039683548FEF784
:101F4C00DBF803003B615DE0314B9B6838221340AA
:101F5C00082B02D1304B3B6154E02D4B9B6838224F
:101F6C001340102B38D12A4BDB6803221340FB6043
:101F7C00274BDB681B09072213400133BB60FB684E
:101F8C00032B0DD1B9682448FEF7B6F803001900ED
:101F9C001F4BDB681B0A7F2213404B437B610DE018
:101FAC00B9681C48FEF7A8F803001900184BDB6849
:101FBC001B0A7F2213404B437B61C046144BDB68EA
:101FCC005B0F0722134001337B6079687869FEF759
:101FDC0093F803003B6115E00D4B9B6838221340CE
:101FEC00202B03D180231B023B610BE0084B9B6829
:101FFC0038221340182B03D1FA23DB013B6101E09B
:10200C0000233B613B691800BD4606B080BDC0464D
:10201C00001002400024F40000127A0080B586B053
:10202C0000AF78601323FB1800221A701223FB18E0
:10203C0000221A707B681A6880239B02134000D11F
:10204C00ADE011203B1800221A70474BDA6B80234D
:10205C005B05134010D1444BDA6B434B802149058F
:10206C000A43DA63404BDA6B80235B051340BB6099
:10207C00BB683B1801221A703C4B1A683B4B802101
:10208C0049000A431A60FEF749FC0300FB600BE0B1
:10209C00FEF744FC0200FB68D31A022B04D913236D
:1020AC00FB1803221A7005E0304B1A6880235B0082
:1020BC001340EDD01323FB181B78002B5ED12A4B59
:1020CC00DA6DC0239B0013407B617B69002B19D018
:1020DC007B681B6C7A699A4214D0234BDB6D244AC3
:1020EC0013407B61204BDA6D1F4B802149020A4360
:1020FC00DA651D4BDA6D1C4B1E490A40DA651A4B2A
:10210C007A69DA657B690122134016D0FEF706FC6A
:10211C000300FB600CE0FEF701FC0200FB68D31A25
:10212C00154A934204D91323FB1803221A7004E0B6
:10213C000D4BDB6D02221340EDD01323FB181B78E3
:10214C00002B0AD1084BDB6D094A134019007B6840
:10215C001A6C054B0A43DA6516E01223FB1813229E
:10216C00BA1812781A700FE000100240007000408C
:10217C00FFFCFFFFFFFFFEFF881300001223FB187C
:10218C001322BA1812781A701123FB181B78012B22
:10219C0005D1B64BDA6BB54BB5490A40DA637B68AF
:1021AC001B680122134009D0B04B5B6D0322934393
:1021BC0019007B685A68AD4B0A435A657B681B68EB
:1021CC000222134009D0A94B5B6D0C2293431900DA
:1021DC007B689A68A54B0A435A657B681B68042286
:1021EC00134009D0A14B5B6D3022934319007B68DF
:1021FC00DA689E4B0A435A657B681B6810221340B1
:10220C0009D09A4B5B6D9B4A134019007B681A6985
:10221C00964B0A435A657B681A6880235B0113400E
:10222C0009D0924B5B6D944A134019007B685A6934
:10223C008E4B0A435A657B681A6880239B001340B7
:10224C0009D08A4B5B6D8D4A134019007B689A6AE2
:10225C00864B0A435A657B681A688023DB0013405F
:10226C0009D0824B5B6D864A134019007B68DA6A91
:10227C007E4B0A435A657B681B682022134009D0A9
:10228C007A4B5B6D7F4A134019007B689A69774BD8
:10229C000A435A657B681B684022134009D0734B74
:1022AC005B6D794A134019007B68DA696F4B0A43FE
:1022BC005A657B681A688023DB01134015D06B4B81
:1022CC005B6D9B0099087B681A6B684B0A435A65D7
:1022DC007B681A6B8023DB059A4206D1634BDA6864
:1022EC00624B802149020A43DA607B681A688023BA
:1022FC001B03134009D05D4B5B6D402293431900C7
:10230C007B685A6B594B0A435A657B681A68802361
:10231C009B03134016D0554B5B6D5C4A1340190060
:10232C007B689A6B514B0A435A657B689A6B802386
:10233C00DB039A4206D14D4BDA684C4B80214904A1
:10234C000A43DA607B681A688023DB03134016D0DB
:10235C00464B5B6D4E4A134019007B68DA6B434B5E
:10236C000A435A657B68DA6B80235B049A4206D178
:10237C003E4BDA683D4B802149040A43DA607B68A6
:10238C001A6880231B01134014D0384B9B6D032219
:10239C00934319007B681A6A344B0A439A657B682D
:1023AC001B6A012B06D1314BDA68304B8021490274
:1023BC000A43DA607B681A6880239B01134014D0AF
:1023CC002A4B9B6D0C22934319007B685A6A274B4E
:1023DC000A439A657B685B6A042B06D1234BDA6847
:1023EC00224B802149020A43DA607B681A688023F9
:1023FC005B04134016D01D4B9B6D224A13401900F1
:10240C007B685A6C194B0A439A657B685A6C80231B
:10241C009B019A4206D1154BDA68144B8021490472
:10242C000A43DA607B681A6880239B04134016D039
:10243C000E4B9B6D104A134019007B689A6C0B4B2A
:10244C000A439A657B689A6C80235B009A4206D19A
:10245C00064BDA68054B802149040A43DA601223E3
:10246C00FB181B781800BD4606B080BD001002405A
:10247C00FFFFFFEFFFF3FFFFFFFCFFFFFFFFF3FF8B
:10248C00FFFFCFFFFFCFFFFFFF3FFFFFFFFFBFFFB0
:10249C00FFFFFFFE80B582B000AF78607B68002B39
:1024AC0001D101234AE07B683D229B5CDBB2002B0F
:1024BC0007D17B683C22002199547B681800FEF7F9
:1024CC001BF97B683D22022199547B681A687B6852
:1024DC0004331900100000F09DFA7B68482201219A
:1024EC0099547B683E22012199547B683F2201213B
:1024FC0099547B684022012199547B684122012127
:10250C0099547B684222012199547B684322012112
:10251C0099547B684422012199547B6845220121FE
:10252C0099547B684622012199547B6847220121EA
:10253C0099547B683D220121995400231800BD4613
:10254C0002B080BD80B584B000AF78607B683D225E
:10255C009B5CDBB2012B01D0012347E07B683D2261
:10256C00022199547B681B68DA687B681B6801211F
:10257C000A43DA607B681B681E4A934214D07B685E
:10258C001A688023DB059A420ED07B681B681A4AB6
:10259C00934209D07B681B68184A934204D07B682D
:1025AC001B68174A934216D17B681B689B68154AB7
:1025BC001340FB60FB68062B16D0FA6880235B0285
:1025CC009A4211D07B681B681A687B681B680121D2
:1025DC000A431A6008E07B681B681A687B681B68F2
:1025EC0001210A431A6000E0C04600231800BD46D2
:1025FC0004B080BD002C01400004004000080040E5
:10260C00004001400700010080B584B000AF786045
:10261C007B681B68DB68FB607B681B681B69BB60A5
:10262C00BB680222134021D0FB68022213401DD04C
:10263C007B681B68032252421A617B6801221A775D
:10264C007B681B689B690322134004D07B681800CD
:10265C0000F0C8F907E07B68180000F0BBF97B6854
:10266C00180000F0C7F97B6800221A77BB680422B7
:10267C00134022D0FB68042213401ED07B681B68D9
:10268C00052252421A617B6802221A777B681B680A
:10269C009A69C0239B00134004D07B68180000F09B
:1026AC00A1F907E07B68180000F094F97B6818002A
:1026BC0000F0A0F97B6800221A77BB68082213404F
:1026CC0021D0FB68082213401DD07B681B680922AF
:1026DC0052421A617B6804221A777B681B68DB699B
:1026EC000322134004D07B68180000F07BF907E04C
:1026FC007B68180000F06EF97B68180000F07AF91E
:10270C007B6800221A77BB681022134022D0FB682A
:10271C00102213401ED07B681B68112252421A6192
:10272C007B6808221A777B681B68DA69C0239B00D8
:10273C00134004D07B68180000F054F907E07B6864
:10274C00180000F047F97B68180000F053F97B681B
:10275C0000221A77BB68012213400CD0FB680122BF
:10276C00134008D07B681B68022252421A617B68B6
:10277C00180000F027F9BB688022134004D1BA6816
:10278C0080239B0113400BD0FB688022134007D0A1
:10279C007B681B681E4A1A617B68180000F0ECFA13
:1027AC00BA6880235B0013400BD0FB688022134077
:1027BC0007D07B681B68174A1A617B68180000F009
:1027CC00E3FABB68402213400CD0FB684022134054
:1027DC0008D07B681B68412252421A617B68180042
:1027EC0000F010F9BB68202213400CD0FB682022AB
:1027FC00134008D07B681B68212252421A617B6807
:10280C00180000F0B1FAC046BD4604B080BDC04609
:10281C007FDFFFFFFFFEFFFF80B584B000AF786065
:10282C0039600F23FB1800221A707B683C229B5CDA
:10283C00012B01D10223BCE07B683C22012199547D
:10284C007B683D22022199547B681B689B68BB60A6
:10285C00BB685A4A1340BB60BB68594A1340BB6003
:10286C007B681B68BA689A603B681B68802292017F
:10287C00934240D080229201934200D988E080227A
:10288C005201934200D188E080225201934200D938
:10289C007EE0702B18D000D97AE0602B4FD000D995
:1028AC0076E0502B3BD000D972E0402B57D000D9AA
:1028BC006EE0302B63D06BD8202B60D068D8002B07
:1028CC005DD0102B5BD063E07B6818683B6899681F
:1028DC003B685A683B68DB6800F0B0F97B681B68A2
:1028EC009B68BB60BB6877221343BB607B681B682B
:1028FC00BA689A6052E07B6818683B6899683B68D4
:10290C005A683B68DB6800F099F97B681B689A6829
:10291C007B681B688021C9010A439A603EE07B6892
:10292C0018683B6859683B68DB681A0000F00AF9C4
:10293C007B681B685021180000F064F92EE07B685E
:10294C0018683B6859683B68DB681A0000F028F986
:10295C007B681B686021180000F054F91EE07B684E
:10296C0018683B6859683B68DB681A0000F0EAF8A5
:10297C007B681B684021180000F044F90EE07B686E
:10298C001A683B681B681900100000F03BF905E061
:10299C000F23FB1801221A7000E0C0467B683D2211
:1029AC00012199547B683C22002199540F23FB1878
:1029BC001B781800BD4604B080BDC04688FFCEFF12
:1029CC00FF00FFFF80B582B000AF7860C046BD4607
:1029DC0002B080BD80B582B000AF7860C046BD4605
:1029EC0002B080BD80B582B000AF7860C046BD46F5
:1029FC0002B080BD80B582B000AF7860C046BD46E5
:102A0C0002B080BD80B582B000AF7860C046BD46D4
:102A1C0002B080BD80B584B000AF786039607B684F
:102A2C001B68FB607B683F4A93420CD07A6880231A
:102A3C00DB059A4207D07B683B4A934203D07B6804
:102A4C003A4A934208D1FB6870229343FB603B687F
:102A5C005B68FA681343FB607B68324A93421CD074
:102A6C007A688023DB059A4217D07B682E4A934202
:102A7C0013D07B682D4A93420FD07B682C4A93422B
:102A8C000BD07B682B4A934207D07B682A4A93422F
:102A9C0003D07B68294A934208D1FB68284A13402B
:102AAC00FB603B68DB68FA681343FB60FB688022C1
:102ABC0093431A003B685B691343FB607B68FA68BD
:102ACC001A603B689A687B68DA623B681A687B68B4
:102ADC009A627B68134A93420BD07B68154A9342E7
:102AEC0007D07B68144A934203D07B68134A934205
:102AFC0003D13B681A697B681A637B6801225A61AF
:102B0C007B681B6901221340012B06D17B681B6972
:102B1C00012293431A007B681A61C046BD4604B07B
:102B2C0080BDC046002C014000040040000800405D
:102B3C00002000400040014000440140004801409A
:102B4C00FFFCFFFF80B586B000AFF860B9607A601B
:102B5C00FB681B6A7B61FB681B6A012293431A00AA
:102B6C00FB681A62FB689B693B613B69F0229343EB
:102B7C003B617B681B013A6913433B617B690A2209
:102B8C0093437B617A69BB6813437B61FB683A6949
:102B9C009A61FB687A691A62C046BD4606B080BD70
:102BAC0080B586B000AFF860B9607A60FB681B6ACC
:102BBC007B61FB681B6A102293431A00FB681A6244
:102BCC00FB689B693B613B690D4A13403B617B6829
:102BDC001B033A6913433B617B69A02293437B61DE
:102BEC00BB681B017A6913437B61FB683A699A6184
:102BFC00FB687A691A62C046BD4606B080BDC04605
:102C0C00FF0FFFFF80B584B000AF786039607B6840
:102C1C009B68FB60FB68084A1340FB603A68FB68E2
:102C2C00134307221343FB607B68FA689A60C04623
:102C3C00BD4604B080BDC0468FFFCFFF80B586B0C7
:102C4C0000AFF860B9607A603B60FB689B687B61A1
:102C5C007B69094A13407B613B681A027B681A4303
:102C6C00BB6813437A6913437B61FB687A699A608A
:102C7C00C046BD4606B080BDFF00FFFF80B584B0E6
:102C8C0000AF786039607B683C229B5C012B01D1E2
:102C9C0002235AE07B683C22012199547B683D2237
:102CAC00022199547B681B685B68FB607B681B681E
:102CBC009B68BB607B681B68264A934208D1FB6803
:102CCC00254A1340FB603B685B68FA681343FB6062
:102CDC00FB6870229343FB603B681B68FA681343E4
:102CEC00FB607B681B68FA685A607B681B68194A32
:102CFC00934214D07B681A688023DB059A420ED06D
:102D0C007B681B68154A934209D07B681B68144A80
:102D1C00934204D07B681B68124A93420CD1BB6867
:102D2C0080229343BB603B689B68BA681343BB60CB
:102D3C007B681B68BA689A607B683D2201219954B4
:102D4C007B683C220021995400231800BD4604B036
:102D5C0080BDC046002C0140FFFF0FFF0004004067
:102D6C00000800400040014080B582B000AF7860A0
:102D7C00C046BD4602B080BD80B582B000AF786061
:102D8C00C046BD4602B080BD80B582B000AF786051
:102D9C00C046BD4602B080BD03008218934200D1EC
:102DAC00704719700133F9E770B500260C4C0D4DC6
:102DBC00641BA410A64209D1002600F019F80A4C95
:102DCC000A4D641BA410A64205D170BDB300EB588C
:102DDC0098470136EEE7B300EB5898470136F2E717
:102DEC00642E0008642E0008682E0008642E00086B
:102DFC00F8B5C046F8BC08BC9E467047F8B5C0464E
:082E0C00F8BC08BC9E467047AB
:102E140000000000000000000000000000000000AE
:102E2400000000000000000000000000000000009E
:102E34000100000002000000030000000400000084
:102E44000600000007000000080000000900000060
:102E54000001020304050607080C10141820304072
:042E6400E50000087D
:042E6800BD000008A1
:0C2E6C000024F40004000000010000003D
:04000005080007DD0B
:00000001FF
